:1019800017C00403090412011001FF000008D0165B
:101990005307030200000001090212000101008048
:1019A00032090400000000000000197A4005930B82
:1019B00011241FBECFE5D2E0CDBFDEBF10E0A0E610
:1019C000B0E001C01D92AC38B107E1F7C2C1A82F49
:1019D000B92F80E090E041E050EA609530E009C026
:1019E0002D9182279795879510F084279527305E53
:1019F000C8F36F5FA8F30895EADF8D939D93089570
:101A0000CF93CFB7CF93C395B29BE9F7B29B0BC0EF
:101A1000B29B09C0B29B07C0B29B05C0B29B03C07A
:101A2000B29B01C0D9C00F92DF93C0916E00DD2739
:101A3000CA58DF4F012EB29B03C0DF910F90E6CF53
:101A40002F930F931F934F932FEF4F6F06B302FB0C
:101A500020F95F933F9350E03BE065C016B3012649
:101A6000502952FDC89556B3012702FB25F92F7363
:101A700006B3B1F05027102712FB26F906B2223028
:101A8000F0F000C016B3012702FB27F90126502908
:101A900006B22430E8F54F77206816B30000F6CF81
:101AA00050274F7D206206B2102F000000C006B301
:101AB00000265029102712FB26F906B2E2CF4F7BF1
:101AC00006B3206400C0DACF01265029167006B292
:101AD00069F14E7F2160012F16B328C000265029DE
:101AE0004D7F06B22260102F29C0012650294B7F5E
:101AF00006B22460012F2DC016B301265029477F5E
:101B00002860000006B22EC04F7E06B3206130C0B0
:101B1000422706B3499300265029102706B24FEFFB
:101B200012FB20F9297F16B379F2167059F10126BC
:101B3000502906B2012702FB21F9237F06B371F277
:101B4000002650293150D0F006B2102712FB22F99E
:101B5000277E16B351F201265029012702FB06B257
:101B600023F92F7C49F2000006B3102712FB24F959
:101B70000026502906B22F7939F270CF10E21ABF31
:101B800000271DC03B503195C31BD04010E21ABF47
:101B90000881033C29F10B3419F120916C00198163
:101BA000110F1213EDCF093651F10D3211F0013E34
:101BB00039F7CAE01AB715FD02C0CA95D9F70093E4
:101BC00074003F915F914F911F910F912F91DF9181
:101BD0000F90CAB7C5FD17CFCF91CFBFCF91089552
:101BE00020917400222369F3109172001123F1F403
:101BF0003430F2F03093720020936D0019C00091E0
:101C0000720001309CF40AE530916F0034FD11C080
:101C100000936F00C1E6D0E010C0052710E000C0BF
:101C200021C0052710E0C89508BB14C03AE501C0E3
:101C300032ED032EC0E0D0E032E017B31660C29A56
:101C400008B317BB56E020E84FEF20FF052708BB7D
:101C5000279517951C3F28F700004552B0F720FF45
:101C60000527279508BB17951C3FB8F629913A958B
:101C700061F7097F10917300110F08BBC250D0406B
:101C800011F010936C0010E21ABF046017B3197FB3
:101C9000402F497F54E05A95F1F708BB17BB48BB6A
:101CA00090CF2FEFB0E8A0E04AE0B1BF000081EE96
:101CB0009CE0B299FECFB29BFECF0197B299FDCFC7
:101CC00097FF03C0BA1B819501C0BA0FA69539F4DE
:101CD000A0E428F4281710F031B7282FA1E04150D4
:101CE00021F731BF000008959C01F2014114510415
:101CF00019F42FEB3CEC07C089E1EA37F80719F437
:101D000081B7282F30E081E0090180935700E895E2
:101D1000112482E0482E512C4E0E5F1E089514BEF1
:101D200088E181BD87E081BDBA9A88EB9BE0ECE950
:101D3000F1E03197F1F70197D1F7BA988AE58093EE
:101D40006F008FEF80936000A99A8BB780628BBF82
:101D500008951F93CF93DF93EAE7F9E184918F3FD2
:101D600011F081BF0000DBDF7724332444245524A5
:101D700014E6CCE7D5E186B3867009F014E611507D
:101D800029F41092730010926C008BDF0AB605FEE6
:101D900005C036DE80E28ABF772402C0219759F75A
:101DA000A895832D823069F4E0E8F9E1E054F04031
:101DB00083E080935700E8953097C1F74424552479
:101DC00012C0803459F4F201329729E1E038F20769
:101DD00050F485E080935700E89505C0843019F4ED
:101DE000CD2B11F4F0C0332490917200935097FDE5
:101DF000A0C080916D008D3209F099C0983009F033
:101E000096C083EC809361008AE580936F00809197
:101E100077008076909178008823A9F1992341F486
:101E20008AEA99E1909371008093700096E074C003
:101E3000913079F44114510409F46DC080917B0014
:101E400040EC442E482250907C0081E187BFE89509
:101E500062C09330A1F48091790090917A0044DFC0
:101E600080917B0090917C003FDF842D90E08F7308
:101E70009070892B09F04FC030E4332E4CC02FE313
:101E8000322E392248C02091790010926A0099239D
:101E900031F410926B002AE630E092E037C09530C2
:101EA00019F4209373002FC09630E9F480917A00E2
:101EB000813019F486E899E104C0823041F488E960
:101EC00099E1909371008093700092E125C0833076
:101ED00011F5222301F582E899E190937100809336
:101EE000700094E019C0983019F425E730E009C07B
:101EF000993019F42093750006C09A3021F42AE62F
:101F000030E091E003C02AE630E090E030937100C9
:101F10002093700001C090E080917E00882329F416
:101F200080917D00891708F4982F9093600010929B
:101F3000720080916F0084FF30C0809160008F3FFD
:101F400061F1182F893008F018E0811B8093600040
:101F50008091610098E8892780936100112381F0C6
:101F6000E0917000F0917100912FA2E6B0E08491B1
:101F70008D9331969150D9F7F0937100E0937000F2
:101F800082E690E0612F38DD612F6C5F6C3019F0D4
:101F90008FEF8093600060936F00C30101963C0156
:101FA000805B944029F4EDE7F9E1E491EF3F59F4C7
:101FB0000AB605FEDDCE8DE1B29B8DE18150E1F7E1
:101FC00080E28ABFD5CEABDE1BBE15BAD7CCFFCF21
:040000030000198060
:00000001FF
